:020000040800F2
:10000000D0080020C10100085B1800087317000821
:1000100059180008CD020008991A000800000000D5
:100020000000000000000000000000005F18000851
:1000300051030008000000005D1800086118000866
:10004000DB010008DB010008DB010008DB01000820
:10005000DB010008DB010008DB010008DB01000810
:10006000DB010008DB010008DB010008DB01000800
:10007000DB010008DB010008DB010008DB010008F0
:10008000DB010008DB010008DB010008DB010008E0
:10009000D1020008DD020008DB010008DB010008D6
:1000A000DB010008DB010008DB010008DB010008C0
:1000B000DB010008DB010008DB010008DB010008B0
:1000C000DB010008DB010008DB010008DB010008A0
:1000D000DB010008DB010008DB010008DB01000890
:1000E000DB010008DB010008DB010008DB01000880
:1000F000DB010008DB010008DB010008DB01000870
:10010000DB010008DB010008DB010008DB0100085F
:10011000DB010008DB010008DB010008DB0100084F
:10012000DB010008DB010008DB010008DB0100083F
:10013000DB010008DB010008DB010008DB0100082F
:10014000DB010008DB010008DB010008DB0100081F
:10015000DB010008DB010008DB010008DB0100080F
:10016000DB010008DB010008DB010008DB010008FF
:10017000DB010008DB010008DB01000800000000D3
:10018000DB010008DB010008DB010008DB010008DF
:10019000DB010008DB010008DB010008DB010008CF
:1001A0000000000000000000DB010008DFF80CD0B8
:1001B00000F07AF800480047011E0008D00800202F
:1001C0000648804706480047FEE7FEE7FEE7FEE7F1
:1001D000FEE7FEE7FEE7FEE7FEE7FEE7051900089B
:1001E000AD0100082DE9F05F0546002092469B46D0
:1001F00088460646814640241BE02846414647463D
:10020000224600F041F853465A46C01A914110D395
:1002100011461846224600F028F82D1A67EB01080F
:100220004F4622460120002100F01FF817EB00097D
:100230004E41201EA4F10104DFDC484631462A4627
:100240004346BDE8F09FD2B201E000F8012B491E01
:10025000FBD270470022F6E710B513460A46044663
:100260001946FFF7F0FF204610BD202A04DB203A94
:1002700000FA02F1002070479140C2F1200320FAF9
:1002800003F3194390407047202A04DB203A21FAF7
:1002900002F00021704721FA02F3D040C2F120029F
:1002A0009140084319467047064C074D06E0E06848
:1002B00040F0010394E8070098471034AC42F6D3AD
:1002C000FFF778FF5C1F00087C1F0008FEE70000B6
:1002D000014800F0C6B9000018000020014800F0F5
:1002E000C0B900001800002010B58AB0002101221A
:1002F000CDE9061203910491CDE9082105910291FF
:10030000009101910446694600F09AF808B107A0EF
:1003100006E00221204600F01CF8002803D008A0C7
:1003200001F0BCFB01200AB010BD000063616E202B
:1003300066696C746572206572726F72210D0A00B5
:1003400063616E20616E206572726F720D0A00002B
:10035000704790F82020012A07D0022A05D0416A70
:1003600041F48021416201207047006842690A43DC
:10037000426100207047F0B590F820500468A468EE
:10038000012D05D0022D03D0416A41F4802153E0B4
:1003900014F0406F01D1E5004BD5C4F30164022C89
:1003A00003D9416A41F4000146E00125A5401D60E2
:1003B0008D684FF4C0739DB1CE6835434E6845EAF1
:1003C000C605066803EB0417F5514FF4C2750768BC
:1003D00005EB04150E697E51097D012905D009E060
:1003E0000E88CD6845EA4655EBE701684E5946F45C
:1003F00080764E511179D2F805504FF4C67641EA15
:100400000525016806EB04168D511178D2F80120FC
:100410004FF4C47541EA0221026805EB04155151FD
:10042000006803EB0411425842F0010242500020E0
:10043000F0BD416A41F4001141620120F0BD0000AD
:1004400010B590F82020012A07D0022A05D0416A71
:1004500041F480214162012010BD3B48D0F80022C8
:1004600042F00102C0F80022D0F8002222F47C52AF
:10047000C0F80022D0F800224B6A42EA0322C0F8FA
:1004800000220A7D02F01F0301229A40D0F81C329C
:100490009343C0F81C32CB69B3B9D0F80C32934304
:1004A000C0F80C328C894B6864F31F434C6900EB35
:1004B000C404C4F840320C890B6864F31F434C69D0
:1004C00000EBC404C4F84432CB69012B16D1D0F838
:1004D0000C321343C0F80C320C884B6864F31F4392
:1004E0004C6900EBC404C4F840320C89CB6864F357
:1004F0001F434C6900EBC404C4F844328B69002BE1
:10050000D0F804320ED01343C0F804320B69002B2C
:10051000D0F8143208D01343C0F81432096A012904
:1005200004D008E09343EFE79343F5E7D0F81C12BB
:100530001143C0F81C12D0F8001221F00101C0F8DC
:100540000012002010BD000000640040704730B56C
:1005500090F82040012C05D0022C03D0416A41F4D0
:1005600080215DE00468002955D02469A40754D097
:100570004FF4D874056804EB01142D5915F00405E7
:10058000956005682D594ED0ED08556005682C59C9
:1005900004F00204D4604FF4DA74056804EB01142B
:1005A0002D5905F00F05156105682D59C5F307256F
:1005B000956105682C59240C54614FF4DC72046871
:1005C00002EB0112A4581C700468A458240A5C7041
:1005D0000468A458240C9C700468A258120EDA70A7
:1005E0004FF4DE72046802EB0112A4581C71046817
:1005F000A458240A5C710468A458240C9C710468F3
:10060000A258120EDA71006881B1016941F020012F
:100610000161002030BDE468A8E7416A41F400119F
:100620004162012030BD6D0D1560AFE7C16841F03A
:100630002001C160EDE70246002092F82010012958
:1006400001D002290CD111688A68520100D501201D
:100650008A68120100D5401C8968C90000D5401C79
:1006600070472DE9F05F0546006800244669D0F820
:1006700004908768D0F80CB0D0F810A0D0F818809B
:10068000F10748D0F90714D001218160B80703D5DC
:10069000284600F058FA0CE0780702D54FF40064C1
:1006A00007E0380702D54FF4805402E0284600F0F6
:1006B00049FAF80516D529684FF480708860B805A6
:1006C00003D5284600F041FA0CE0780502D544F441
:1006D000005407E0380502D544F4804402E028467F
:1006E00000F032FAF80316D529684FF4803088609C
:1006F000B80303D5284600F02AFA0CE0780302D5A7
:1007000044F4004407E0380302D544F4803402E0A6
:10071000284600F01BFA300707D55FEACB6004D506
:100720002968102044F40074C86070074FF008076F
:1007300007D55FEA0B7004D52868C760284600F02B
:1007400067F9B00706D52868C068800702D0284638
:1007500000F060F9700607D55FEACA6004D5296821
:10076000102044F480640861B00607D55FEA0A707F
:1007700004D528680761284600F064F9F00606D51C
:1007800028680069800702D0284600F05CF9B003B1
:1007900008D55FEAC96005D5296810204860284659
:1007A00000F0A2F9F00307D55FEA097004D52868C4
:1007B0004760284600F0CCF9300446D55FEA49701E
:1007C00040D5F00504D55FEAC87001D044F00104BB
:1007D000B00504D55FEA887001D544F002047005C5
:1007E00004D55FEA487001D544F00404300529D5EA
:1007F00018F0700F26D008F07000402815D006DCE5
:10080000102809D020280AD0302816D10AE0502814
:100810000ED0602811D10EE044F008040DE044F041
:1008200010040AE044F0200407E044F0400404E02F
:1008300044F0800401E044F480742868816921F068
:1008400070018161296804204860002C05D0686A25
:10085000204368622846FFF779FEBDE8F09F70B537
:10086000040003D094F8200010B104E0012070BD12
:10087000204600F081F82068016841F00101016024
:1008800000F09AFA0546052604E000F095FA401BB0
:100890000A2811D820684068C007F6D0206801688F
:1008A00021F00201016000F087FA05460BE000F03C
:1008B00083FA401B0A2806D9606A40F4003060625F
:1008C00084F82060D2E7206840688007EFD4207E5B
:1008D0000128206801683DD021F080010160607E20
:1008E00001282068016838D021F040010160A07E15
:1008F00001282068016833D021F020010160E07EEA
:100900000128206801682ED041F010010160207F8D
:1009100001282068016829D021F008010160607F6A
:1009200001282068016824D021F004010160D4E985
:1009300002010843D4E90412114308436168491EC7
:1009400008432168C86100206062012084F820000B
:10095000002070BD41F08001C0E741F04001C5E7D3
:1009600041F02001CAE721F01001CFE741F0080172
:10097000D4E741F00401D9E710B586B0044614214C
:100980006846FFF767FC1F492068884237D11E4838
:100990000021026842F000720260006800F00070FE
:1009A000059019481038026842F008020260006899
:1009B000022200F0080005900320CDE90210CDE9E5
:1009C0000002092004906946104800F0D5F8002282
:1009D0001146142000F05EFA142000F04DFA0022B7
:1009E0001146152000F056FA152000F045FA0022B5
:1009F0001146162000F04EFA162000F03DFA06B01F
:100A000010BD00000064004040380240000C02406D
:100A10007047000010B500680649884209D1064BAE
:100A2000002103F10B020548FFF791FD0449012065
:100A3000087010BD006400408D00002018000020E8
:100A40000000002070477047F8B517460E46044670
:100A5000082B04D919460FA001F020F80823002024
:100A60002660A060C4E90303207503E01548FFF782
:100A7000E2FDC5B2002DF9D06B463A462146114839
:100A8000FFF779FC20B110A001F008F80020F8BDB4
:100A90000120F8BD43414E20547820446174612008
:100AA0006C656E204552524F52212C6C656E3D256F
:100AB000642C6C656E206C696D69742069732038D4
:100AC0000D0A00001800002048414C5F43414E5F72
:100AD00041646454784D6573736167652065727213
:100AE0006F720D0A000000007047000070B50446E8
:100AF00090F82000012804D0606A40F40020606271
:100B000018E0022084F820002068016821F001012B
:100B1000016000F051F905460EE000BF00F04CF90D
:100B2000401B0A2808D9606A40F400306062052042
:100B300084F82000012070BD20684068C007EDD116
:100B4000606270BD7047704770477047704770476C
:100B50007047000070B5044600F02EF90546601C91
:100B600002D004480078044400F026F9401BA0425B
:100B7000FAD370BD040000202DE9F84FDFF8F8A18A
:100B8000002201240AF1040B03254FF00F090BF199
:100B9000040E00BF0B6804FA02F63340B34270D172
:100BA0000F7907F00307012F01D0022F16D18768B4
:100BB0004FEA420805FA08FC27EA0C07D1F80CC0F6
:100BC0000CFA08FC4CEA070CC0F808C04768B743A9
:100BD0000E79C6F3001696403E4346600E79F64302
:100BE000B6070AD0C7684FEA420C05FA0CF6B743BD
:100BF0008E6806FA0CF63E43C6600E7906F00306D0
:100C0000022E10D1D60800EB8608D8F820605707CE
:100C10004FEAD76C09FA0CF7BE430F6907FA0CF7D5
:100C20003743C8F8207006684FEA420C05FA0CF703
:100C3000BE430F7907F0030707FA0CF73743076045
:100C40004E6816F4403F1CD04C4E376847F480473E
:100C50003760366822F0030706F480460096484E57
:100C600007EB060CDCF8086897073F0F09FA07F84E
:100C700026EA0806DFF80C81404503D14FF0000852
:100C800041E072E0DFF80081404502D14FF00108F9
:100C900039E0DFF8F880404502D14FF0020832E039
:100CA000DFF8EC80404502D14FF003082BE0DFF87D
:100CB000E480404502D14FF0040824E0DFF8D880FA
:100CC000404502D14FF005081DE0DFF8D0804045D7
:100CD00002D14FF0060816E0DFF8C480404502D18B
:100CE0004FF007080FE0DFF8BC80404502D14FF01D
:100CF000080808E0DFF8B080404502D14FF009084D
:100D000001E04FF00A0808FA07F848EA0608CCF8AC
:100D10000888DAF800605746D1F804C09E435FEABD
:100D2000CC3C00D51E433E60DBF800605F46D1F846
:100D300004C09E435FEA8C3C00D51E433E60DEF853
:100D400000607746D1F804C09E435FEACC2C00D502
:100D50001E433E60084F0C373E68D1F804C09E43E6
:100D60005FEA8C2C00D51E433E60521C102AFFF413
:100D700011AFBDE8F88F0000003C0140443802404C
:100D80000030014000000240000402400008024020
:100D9000000C024000100240001402400018024003
:100DA000001C024000200240002402400AB1816180
:100DB00070470904FBE700000148806870470000A5
:100DC0000400002002488168027811448160704765
:100DD000040000200B4810B5016841F40071016067
:100DE000016841F480610160016841F48071016033
:100DF000032000F06FF80F2000F006F800F024F850
:100E0000002010BD003C024070B50D4D04464FF46B
:100E10007A712878B1FBF0F00A490968B1FBF0F06B
:100E200000F0D2FB48B9102C07D200222146501EF8
:100E300000F030F800206C6070BD012070BD000033
:100E400004000020100000200A4808B5016841F4A1
:100E500080410160006800F4804000900548001F58
:100E6000016841F080510160006800F080500090FE
:100E700008BD000044380240002809DB00F01F02D2
:100E8000012191404009800000F1E020C0F80011EC
:100E900070470000F0B40E4B1B680C46C3F30223EE
:100EA000C3F10705042D00D90425191D072901D216
:100EB000002300E0DB1E012606FA05F1491E214051
:100EC00099409E40761E16403143F0BC00F0F6BDBE
:100ED0000CED00E0064900F0070208684FF6FF033A
:100EE000184040EA0220034A10430860704700009F
:100EF0000CED00E00000FA052DE9F8431748016801
:100F000041F0805101600068154F00F080500126CB
:100F100000903E64FFF750FF05464FF47A78114C7D
:100F200005E000BFFFF748FF401B40450DD8606853
:100F3000C003F7D57E64FFF73FFF0546464607E04E
:100F4000FFF73AFF401BB04202D90320BDE8F88307
:100F500060688003F4D50020F8E7000040380240C4
:100F600000000E420070004010B500F045F90E4C34
:100F7000B0FBF4F10DA000F091FD00F017F9B0FB0B
:100F8000F4F117A000F08AFD00F016F9B0FBF4F1BF
:100F90001FA000F083FD00F01FF9B0FBF4F1BDE8E5
:100FA000104028A000F07ABD40420F005B48414C41
:100FB0005F4765745F4350555F5243435F436C6FB7
:100FC000636B5D48414C5F5243435F537973436C9D
:100FD0006F636B467265713A25644D487A0D0A005D
:100FE0005B48414C5F4765745F4350555F524343D4
:100FF0005F436C6F636B5D48414C5F5243435F4896
:10100000434C4B467265713A25644D487A0D0A008F
:101010005B48414C5F4765745F4350555F524343A3
:101020005F436C6F636B5D48414C5F5243435F505D
:10103000434C4B31467265713A25644D487A0D0A2E
:10104000000000005B48414C5F4765745F435055AA
:101050005F5243435F436C6F636B5D48414C5F522B
:1010600043435F50434C4B32467265713A25644DA1
:10107000487A0D0A000000002DE9F0470E460500F1
:1010800065D0DFF81481D8F80000F7B200F00F0047
:10109000B04207D288F80070D8F8000000F00F00C6
:1010A000B04254D128683D4C810712D5400703D582
:1010B000206840F4E05020602878000703D52068BD
:1010C00040F4604020602068A96820F0F0000843E8
:1010D00020602878C0072DD0304968680839012879
:1010E00012D0022813D0032811D0096889070029DB
:1010F0002DDA216821F0030101432160FFF75CFE36
:10110000814641F2883A0EE009688903EFE70968F1
:101110008901ECE7FFF750FEA0EB0901514502D928
:101120000320BDE8F0872068696800F00C00B0EB90
:10113000810FEFD1D8F80010404601F00F01B14205
:1011400007D90770006800F00F00B04201D00120FD
:10115000E7E72878400705D52068E96820F4E050E3
:10116000084320602878000706D52068296920F404
:10117000604040EAC100206000F03EF82168084A63
:10118000C1F30311515CC840064908600648006875
:10119000FFF73AFE0020C4E7003C02400838024056
:1011A000F41E00081000002008000020014800681C
:1011B00070470000100000200448054900680968D5
:1011C000044AC1F38221515CC840704710000020DE
:1011D00008380240041F00080448054900680968EF
:1011E000044AC1F34231515CC840704710000020EE
:1011F00008380240041F0008154810B5006810F0B8
:101200000C02144813D01449042A0FD0082A0ED116
:101210000F4C241F2268236802F03F025B0207D5AF
:101220002068C0F38810A0FB010106E0084610BD4D
:101230002168C1F38811A1FB00010023FEF7D2FF52
:101240002168C1F30141491C4900B0FBF1F010BD18
:10125000083802400024F40040787D012DE9F84F61
:1012600004006ED02078DFF84C93C007A9F1040584
:101270004AD009F104000168C1F38101012908D0B5
:101280000068C0F3810002280AD1D9F800004002AA
:1012900006D52868800337D560680028E1D033E0A0
:1012A0006068B0F5803F10D0B0F5A02F286810D04E
:1012B00020F480302860286820F48020286060684E
:1012C000A8B1FFF779FD06460DE0286840F48030AC
:1012D000F4E740F480202860F7E700BFFFF76CFDDB
:1012E000801B642873D828688003F7D50CE0FFF7CB
:1012F00063FD064605E000BFFFF75EFD801B642826
:10130000F0D828688003F7D42078DFF8AC82800713
:101310004FF0000A3ED5A748001D016811F00C0FE0
:1013200008D00068C0F3810002280BD1D9F8000072
:10133000400207D42868800716D5E068012800D14C
:1013400012E033E1E068B8B10120C8F80000FFF70F
:1013500033FD064605E000BFFFF72EFD801B022887
:10136000C0D828688007F7D52868216920F0F800E0
:1013700040EAC10028600DE0C8F800A0FFF71CFD9E
:10138000064604E0FFF718FD801B02281FD82868D6
:101390008007F7D42078000722D5864F87486169F7
:1013A000703771B101210160FFF706FD064604E0C8
:1013B000FFF702FD801B022809D838688007F7D59F
:1013C0000EE0C0F800A0FFF7F7FC064605E082E05B
:1013D000FFF7F2FC801B02287DD838688007F7D41D
:1013E0002078400768D5DFF8CCB100270BF13C0B23
:1013F000DBF80000C0000BD4DBF8001041F0805196
:10140000CBF80010DBF80000012700F080500090BE
:101410006B4E3068C00510D4306840F48070306086
:10142000FFF7CAFC009005E0FFF7C6FC0099401AE0
:10143000022850D83068C005F6D55E4EA0686C36DC
:1014400001280FD00528306810D020F0010030604E
:10145000306820F004003060A068B8B1FFF7ACFC41
:1014600000900FE0306840F00100F4E740F0040025
:101470003060F7E7FFF7A0FC0099411A41F288308D
:10148000814266D830688007F4D50EE0FFF794FCFF
:10149000009007E0FFF790FC0099411A41F2883074
:1014A000814256D830688007F4D42FB1DBF80010A1
:1014B00021F08051CBF80010A069C8B33D49091D47
:1014C0000968C1F3810102294AD00228504607D099
:1014D000C8F8600000E03CE0FFF76EFC04463BE02B
:1014E0004746C8F86000FFF767FC064605E000BF06
:1014F000FFF762FC801B02282BD828688001F7D4F4
:10150000D4E907010843A16A2E4A490802EB0141C8
:10151000626A41EA8211084394F82C1040EA0161A2
:10152000C9F8001001203866FFF746FC044606E0C3
:101530003EE000BFFFF740FC001B022809D82868E6
:101540008001F7D534E000BFFFF736FC001B02280E
:1015500002D90320BDE8F88F28688001F4D427E081
:101560000128F7D0D9F80000E26900F48001914227
:101570001CD1226A00F03F01914217D147F6C07199
:10158000626A0140B1EB821F10D1A26A4FF0FF33B3
:1015900000F4403103EB5202B1EB024F06D194F854
:1015A0002C1000F07060B0EB016F01D00120D1E78A
:1015B0000020CFE70438024000004742800E474237
:1015C000007000400000FFFF10B5401EB0F1807FAA
:1015D00001D3012010BD4FF0E02460610F2160179E
:1015E00000F06CFA0020A06107202061002010BDEF
:1015F00070B5040004D094F83D00002510B106E059
:10160000012070BD84F83C50204600F023F82420CF
:1016100084F83D002068C16821F40051C160204673
:1016200000F078F92068016921F490410161206897
:10163000416921F02A0141612068C16841F40051EB
:10164000C1602564202084F83D0084F83E0000201D
:1016500070BD000010B586B0044614216846FEF740
:10166000F9FD14492068884221D1134800210268FD
:1016700042F080420260006800F0804005900E4811
:101680001038026842F010020260006800F010009A
:1016900005904FF4C07000900220CDE901010320B5
:1016A00003900820049069460448FFF765FA06B0E5
:1016B00010BD000000780040403802400010024099
:1016C0002DE9F843044690F83D001F4616460D46A6
:1016D00020284CD1C5B1BEB194F83C00012846D0B9
:1016E000012084F83C004FF00008C4F8408021201D
:1016F00084F83D00FFF760FBA6848146E684A0687D
:10170000B0F5805F03D004E00120BDE8F8832069D4
:1017100028B12E465FF0000584F83C800EE00026DC
:10172000FAE78021204600F07BF9A0B9AEB116F8A7
:10173000010B21684860E08C401EE084E08C4B4641
:101740004FF0000200970028EBD14FF040012046F7
:1017500000F066F930B10320D7E735F8020BC0F38B
:101760000800E6E7202084F83D000020CDE70220B5
:10177000CBE7FEE70E4810B50C4901600921416036
:1017800000214FF4C0228160C0E903124FF480129F
:101790004261017641768176C17601774177FFF724
:1017A0005EF8002801D072B6FEE710BD006400406C
:1017B000180000202DE9F04186B014216846FEF79C
:1017C00049FD22480024016841F080010160016860
:1017D00001F080010591016841F00201016001689A
:1017E00001F002010591016841F0100101600168FA
:1017F00001F010010591016841F0080101600068E5
:10180000134F00F008000590002207213846FFF72B
:10181000CDFADFF840807E15002231464046FFF7C2
:10182000C5FA072000900125CDE9015469463846E4
:101830000394FFF7A1F90096CDE9015469464046AB
:101840000394FFF799F906B0BDE8F0813038024003
:101850000004024000100240FEE7FEE770477047B8
:10186000FFF7B0BA30B593B030216846FEF7F2FC0E
:1018700014210CA8FEF7EEFC20480025016841F079
:1018800080510160006800F0805011901C48016890
:1018900041F4404101600068022400F4404011908E
:1018A000012000904FF4A02001906005CDE9064092
:1018B000192008904FF4B470CDE9090404200B906E
:1018C0006846FFF7CBFC08B172B6FEE7FFF714FBE2
:1018D00008B172B6FEE70CA90F2081E831004FF481
:1018E000A0500F90109005210CA8FFF7C5FB002811
:1018F00001D072B6FEE713B030BD000040380240A0
:10190000007000400248016841F4700101607047B6
:1019100088ED00E070B5044600680169E26821F4D2
:101920004051114301612169A068E269084361697E
:10193000114308432168CA6849F20C639A43024381
:10194000CA6020684169A26921F440711143416174
:1019500031492068884202D03049884202D1FFF7DD
:101960003BFC01E0FFF728FCE26900231921642514
:101970003226B2F5004F626828D0A0FB0101930F18
:101980009200FEF72FFC0146B0FBF5F06FF0180255
:10199000504301EB800006EB0010B0FBF5F000F0C7
:1019A000F002B1FBF5F002EB0012B1FBF5F06FF0C5
:1019B0001803584301EB800006EB0010B0FBF5F074
:1019C00000F00F0021681044886070BDA0FB010189
:1019D00092185B41FEF706FC0146B0FBF5F00201F0
:1019E000B1FBF5F06FF01803584301EB800006EBF4
:1019F000C000B0FBF5F000F0F80002EB4002B1FBD4
:101A0000F5F0584301EB800006EBC000B0FBF5F0A9
:101A100000F00700D6E7000000100140001401406C
:101A20002DE9F041984617460E460446069D27E0EC
:101A3000681C25D02DB1FFF7BFF9A0EB0800A84224
:101A40001ED920680C3050E8001F21F4D07140E806
:101A50000012002AF5D12068143050E8001F21F050
:101A6000010140E80012002AF5D1202084F83D0051
:101A700084F83E00002084F83C000320BDE8F0819B
:101A80002068006836EA000004D00020B842CFD0B9
:101A90000020F3E70120F9E7FEE700000FB4054B53
:101AA00010B503A9044A029800F028F810BC5DF8AC
:101AB00014FB0000E91D0008140000200907090EAE
:101AC000002804DB00F1E02080F80014704700F0EB
:101AD0000F0000F1E02080F8141D704702E008C8F4
:101AE000121F08C1002AFAD170477047002001E098
:101AF00001C1121F002AFBD1704700002DE9FF4FE2
:101B00008DB09B460F460446002606E025280BD0E4
:101B10005A460F999047641C761C20780028F5D10E
:101B200011B03046BDE8F08F0025A8460122984943
:101B300000E0054314F8013F203B02FA03F008429D
:101B4000F7D120782E2817D114F8010F45F004059D
:101B50002A280ED06FF02F022078A0F13001092939
:101B60000AD808EB880102EB410100EB0108641C74
:101B7000F2E757F8048B641C20786C280DD004DC45
:101B80004C2812D06A2811D104E074280DD07A288C
:101B90000CD10AE045F4001507E0617845F48015A2
:101BA000814202D1641C05F58015641C2278692AE3
:101BB00045D008DC002AB3D0582A69D0632A10D057
:101BC000642A08D13BE0702A67D0732A13D0752AA3
:101BD0005CD0782A5CD010465A460F999047761C04
:101BE000D3E017F8040B8DF8000000208DF80100F9
:101BF000E946012003E057F8049B4FF0FF306907E6
:101C00004FF0000501D40AE06D1C45450DDA854210
:101C1000FADB19F805100029F6D106E06D1C8542A3
:101C2000FCDB19F805100029F8D12E4404E019F85E
:101C3000010B5A460F9990476D1EF8D2A5E00A2075
:101C40000021CDE90801C5F3025002280DD001CFD3
:101C5000C117031E71F100030DDA4FF0000CD0EB39
:101C60000C006CEB01012D2308E0FF1D27F0070796
:101C7000F7E80201EDE72B0504D52B238DF828307A
:101C800001233BE0EB0739D02023F7E70A2000E0EF
:101C900010200021CDE9080107E01020002145F0C7
:101CA0000405CDE908014FF00808C5F302500228E9
:101CB0000FD001CF00214FF0000A2B071FD5702A4B
:101CC0000DD0DDE908C38CF0100C5CEA030C0CD0DD
:101CD00015E0FF1D27F00707F7E80201EBE74022B8
:101CE0008DF828204FF0010A0BE050EA010306D0DE
:101CF00030238DF828308DF8292002239A46582A5F
:101D000004D024A20DF120090B9209E026A2F9E7E4
:101D1000DDE90823FEF766FA0B9B9B5C09F8013DA1
:101D200050EA0102F4D1ADEB0900203008906807B9
:101D300001D44FF001080899884502DDA8EB0100A5
:101D400000E000208046002506E00AA85A46405DD3
:101D50000F9990476D1C761C5545F6DB04E030204A
:101D60005A460F999047761CB8F10001A8F1010876
:101D7000F5DC05E019F8010B5A460F999047761CDF
:101D80000899481E08900029F4DC641CC5E6000090
:101D90000928010030313233343536373839616241
:101DA0006364656600000000303132333435363705
:101DB000383941424344454600000000084810B508
:101DC00013210170882141700648FEF78DFA0548FD
:101DD000FEF78CFEBDE8104002210248FEF7B9BABA
:101DE000840000201800002013B50A230122694650
:101DF0000248FFF765FC00981CBD00004000002071
:101E00001FB5FEF7E7FFFFF72DFDFFF7D3FCFFF748
:101E1000B1FC28482649002401604FF4E131C0E9B3
:101E200001140C21C460C0E904418461C461FFF75E
:101E3000DFFB08B172B6FEE71FA0FFF72FFEFFF72A
:101E400093F8FFF7BBFF244D244E40F2FF17082301
:101E5000234A39462348FEF7F7FD6420FEF77AFE51
:101E600008231F4A10211F48FEF7EEFD287870B1A5
:101E70001D482C7090F801C003781C48D0E903126B
:101E80008DE80E1090E80E001948FFF707FE0022BB
:101E900006213046FEF78AFFC820FEF75BFE0122CE
:101EA00006213046FEF782FFC820FEF753FECEE73C
:101EB00000780040400000205B414D535D4261735B
:101EC0006520486172647761726520496E6974208B
:101ED0004F4B210D0A0000000000002000040240CA
:101EE00084000020B40000208D0000209800002015
:101EF0000C1F0008000000000000000001020304A5
:101F000006070809000000000102030443414E31A6
:101F100020527820446174612C53746449643D30CC
:101F20007825782C45787449643D307825782C499B
:101F300044453D307825782C5254523D30782578F0
:101F40002C444C433D25642C64303D307825782C5E
:101F500064313D307825780D0A0000007C1F0008B0
:101F60000000002018000000DC1A0008941F000880
:101F700018000020B8080000EC1A0008000000005B
:101F80000100000010000000000000000024F40028
:041F9000000000004D
:04000005080001AD41
:00000001FF
